:060000000A128A11FB2F19
:100E660083120313060CF000F00C700C0139F2002B
:100E76008230F100DD30F000F00B3F2FF10B3F2FF9
:100E8600442F83120313060CF000F00C700C01398A
:100E9600F30072087306031D512F522F542F730847
:100EA600552FFF300800831603138501083086008E
:100EB600FC3089007F308700F601F4010A128A119E
:100EC60033270A128A11F500750A03196B2F6C2F46
:100ED600612F7503031D702F712F782F7408031D62
:100EE600752F762F782F0130F6077508F4007608EF
:100EF600031D7E2F7F2F852FC1308312031385009C
:100F0600FE3089007603031D892F8A2F902FF33038
:100F1600831203138500FF30890002307606031D15
:100F2600952F962F9C2FC930831203138500FD3011
:100F3600890003307606031DA12FA22FA82FE130CA
:100F4600831203138500FD30890004307606031DE5
:100F5600AD2FAE2FB42FF330831203138500FC3070
:100F6600890005307606031DB92FBA2FC02FE5304C
:100F7600831203138500FC30890006307606031DB4
:100F8600C52FC62FCC2FC530831203138500FC3026
:100F9600890007307606031DD12FD22FD82FF130C6
:100FA600831203138500FF30890008307606031D7F
:100FB600DD2FDE2FE42FC130831203138500FC30B2
:100FC600890009307606031DE92FEA2FF02FE1305C
:100FD600831203138500FC3089000A307606031D50
:100FE600F52FF62F612FF601612F0A128A110028BC
:0A0FF600F70183010A128A11562F39
:00000001FF
