:100000000A128A11EC2F00308A000408840A820741
:1000100000345234413457343A342534343475344E
:1000200000346D3456343A34253434347534003465
:1004AE00080064008001840A04060319003404065F
:1004BE00592A0130831603138500CE309F008130F8
:1004CE00831203139F002130F000F00B6C2A0800FA
:1004DE002130F200F20B712A831203131F151F191C
:1004EE00792A7A2A762A1E08F100831603131E082B
:1004FE00F00008008C2A7308840000080A128A1182
:10050E0095220A128A110130F307730884008313AF
:10051E000008031D932A942A822A0800F2008312EF
:10052E00031306177208880086170730F1007D3016
:10053E00F000F00BA02AF10BA02A831203138613EE
:10054E000730F1007D30F000F00BAB2AF10BAB2A37
:10055E000800F20083120313061372088800861730
:10056E000730F1007D30F000F00BBB2AF10BBB2AF7
:10057E008312031386130730F1007D30F000F00B69
:10058E00C62AF10BC62A0800831203134508C700BA
:10059E00DD2A4308B8004408B9004730BA004608BF
:1005AE00BB000A128A1161250A128A1183120313E3
:1005BE00470884000A128A1103200A128A11003A8F
:1005CE00031DEA2AEB2AD02AC301C40108004A30CF
:1005DE0083120313CD004808CE000030CF00D001A7
:1005EE00D101D701D8014E30C3000030C4004908F4
:1005FE00C5004D30C6000A128A11CB220A128A118A
:10060E008312031350084807CC004C088400831350
:10061E0080010800F401F501701C162B172B1D2B01
:10062E007208F4070318F50A7308F5070130031072
:10063E00F20DF30DFF3E031D1E2B01300310F10CC6
:10064E00F00CFF3E031D252B70087104031D302B8B
:10065E00312B132B7508F1007408F000080083127B
:10066E000313A601A701532B2508A300A4012308F9
:10067E00F0002408F1002108F2002208F3000A120B
:10068E008A118F260A128A11013083120313A607CC
:10069E000318A70A0030A70726082007A30023087F
:1006AE00840083130008A5002508031D5F2B602B13
:1006BE003B2B08008230F400DD30F300F30B652B8A
:1006CE00F40B652B6A2B38300A128A11B0220A12EB
:1006DE008A1106300A128A11B0220A128A110C30BF
:1006EE000A128A11B0220A128A1101300A128A11D4
:1006FE00B0220A128A110D30F400FB30F300F30B16
:10070E00862BF40B862B8B2B80300A128A11B0228B
:10071E000A128A110800700871040319972B982B7E
:10072E00C52B0130F400A42B01300310F00DF10D98
:10073E00FF3E031D9C2B0130F407F11FA72BA82BA6
:10074E009B2B71087302031DAE2B70087202031CE3
:10075E00B12BB22BB82B7008F2027108031CF303F5
:10076E00F30201300310F10CF00CFF3E031DB92B08
:10077E000130F402031DC42BC52BA82B7308F10006
:10078E007208F0000800F401F501700871040319F5
:10079E00D12BD22B072C0130F600DE2B01300310AB
:1007AE00F00DF10DFF3E031DD62B0130F607F11FA4
:1007BE00E12BE22BD52B01300310F40DF50DFF3E8E
:1007CE00031DE32B71087302031DEF2B70087202D9
:1007DE00031CF22BF32BFA2B7008F2027108031C88
:1007EE00F303F302741401300310F10CF00CFF3E0E
:1007FE00031DFB2B0130F602031D062C072CE22BEA
:10080E007508F1007408F00008000030FC0000309C
:10081E00FB000030FA000030F900701C172C182C69
:10082E002F2C7408F907750803110318013E0319DC
:10083E00212CFA07760803110318013E0319282C00
:10084E00FB07770803110318013E03192F2CFC0731
:10085E000130F8000310F40DF50DF60DF70DF80B41
:10086E00312C01300310F30CF20CF10CF00CFF3EA6
:10087E00031D392C7308720471047004031D482C77
:10088E00492C142C7C08F3007B08F2007A08F10046
:10089E007908F0000800FA01FB0176088400831342
:1008AE00000884000A128A1103200A128A112A3AB9
:1008BE00031D622C632C8F2C760884000130800778
:1008CE00770884000008F80002308007780884005A
:1008DE000008FA00840A0008FB00A02C7B08F10037
:1008EE007A08F0000A30F2000030F3000A128A1182
:1008FE0011230A128A1179087007FA0000300318C2
:10090E0001307107FB0076088400013083138007E5
:10091E0076088400000884000A128A1103200A1245
:10092E008A11D03EF9000A307902031C9F2CA02CAC
:10093E00752C7B08F7007A08F60008008312031363
:10094E00601CAA2CAB2CB62C2A08A0002808A100EB
:10095E002908A2000A128A1136230A128A1183125A
:10096E000313AC1FBB2CBC2CBE2CAB01AC01AD01D8
:10097E00AE01D82C2030F0000030F10083120313AA
:10098E002808F2002908F3000A128A118F260A128B
:10099E008A11013083120313AD070318AE0A00301B
:1009AE00AE072E08803AFD002C08803A7D02031D0A
:1009BE00E22C2B082D02031CE52CE62CC12C8312F5
:1009CE0003136018EB2CEC2CF72C2A08A000280837
:1009DE00A1002908A2000A128A1136230A128A11CE
:1009EE000800013083120313B5005D08B4005C08E3
:1009FE00B3001F30B6000030B70083160313BF01DB
:100A0E003E2DFF30B6070318B70AFF30B70736087A
:100A1E00A03E84000A30F0000030F1003208F300EE
:100A2E003108F2000A128A1192230A128A117008F2
:100A3E00303E8313800083120313B501FF30B307DA
:100A4E000318B40AFF30B4070A30F0000030F1008A
:100A5E003208F3003108F2000A128A11CA230A1270
:100A6E008A11710883120313B2007008B100831249
:100A7E00360837040319442D452D502D3108320404
:100A8E00031D4A2D4B2D082D3508031D4F2D502DBE
:100A9E00082D2F08A8003008A9003608A03EAA008D
:100AAE003408AC003308AB000A128A11A5240A12CE
:100ABE008A110800831203133A0884008313000876
:100ACE0084000A128A1103200A128A11253A031D84
:100ADE00712D722DDC2D3A08840001308007DC0167
:100AEE00DD010030E000FF30DE00FF30DF003A08AD
:100AFE00F6003B08F7000A128A1152240A128A11D4
:100B0E00770883120313DD007608DC00DD1F902DBD
:100B1E00912D972D6014DC09DD09DC0A0319DD0A1D
:100B2E003A08840083130008C200420884000A12A7
:100B3E008A1103200A128A11753A031DA72DA82DBA
:100B4E00D42D3B0884000008BC00023080073C080E
:100B5E0084000008BE00840A0008BF003A08840022
:100B6E004208013E8000C92D3808AF003908B00098
:100B7E003F08B2003E08B1000A128A11F8240A1288
:100B8E008A11F52D420884000A128A1103200A12D6
:100B9E008A11753A0319BB2DD42D831203133A080B
:100BAE008400013083138007F52D3A088400000875
:100BBE0084000A128A1103200A128A11BC00BD0198
:100BCE003C08F0003D08F1003808F2003908F30047
:100BDE000A128A118F260A128A11D42D0800831246
:100BEE000313A901A31FFC2DFD2D0A2EA009A10997
:100BFE00A209A309A00A0319A10A0319A20A03193B
:100C0E00A30A0130A900A71F0D2E0E2E1B2EA4091C
:100C1E00A509A609A709A40A0319A50A0319A60A74
:100C2E000319A70A0130A9060030AD000030AC0050
:100C3E000030AB000030AA00230822042104200457
:100C4E0003192A2E2B2E762E0130A800392E0130B4
:100C5E00FD000310A00DA10DA20DA30DFD0B302E56
:100C6E000130A807A31F3C2E3D2E2E2E0130FD0075
:100C7E000310AA0DAB0DAC0DAD0DFD0B3F2E2308D1
:100C8E002702031D542E22082602031D542E21086E
:100C9E002502031D542E20082402031C572E582E05
:100CAE00672E2008A4022108031C210FA50222088A
:100CBE00031C220FA6022308031C230FA7022A14CB
:100CCE0001300310A30CA20CA10CA00CFF3E031DBF
:100CDE00682E0130A802031D752E762E3D2E290892
:100CEE0003197A2E7B2E862EAA09AB09AC09AD0903
:100CFE00AA0A0319AB0A0319AC0A0319AD0A2D0887
:100D0E00A3002C08A2002B08A1002A08A0000800AE
:100D1E00720873040319942E952E9B2E7208730479
:100D2E00031D9A2E9B2EA22E70080A128A1157228C
:100D3E000A128A11282F7208093EF400730803184C
:100D4E00013E003EF500740884008317751C831362
:100D5E000008F600840A0008F700760877040319E5
:100D6E00B92EBA2EEC2E7208093EF4007308031841
:100D7E00013E003EF500740884008317751C831332
:100D8E000008F600840A0008F7007208023EF80018
:100D9E0073080318013E003EF9007808840083179B
:100DAE00791C83130008FA00840A0008FB007B08F4
:100DBE00803AFC007708803A7C02031DE82E760804
:100DCE007A020318EB2EEC2E282F7208840083175C
:100DDE00731C83130008F400840A0008F5007208DF
:100DEE00023EF60073080318013E003EF700760837
:100DFE0084008317771C831300087407F9007508A5
:100E0E00F8000318F80A801F0D2FF8037808FA006F
:100E1E007908840083177A1C831370088000720887
:100E2E00023EF40073080318013E003EF5007408FC
:100E3E0084008317751C831301308007840A0318FE
:100E4E00800A080083160313880186010A128A118C
:100E5E0061230A128A110A128A1160220A128A1159
:100E6E00FF3083160313D0000030D1000A128A110E
:100E7E006F220A128A11710883160313D3007008A9
:100E8E00D200003083120313A3000030A2000330FF
:100E9E00A100FF30A000831603135208F000530880
:100EAE00F100F201F3010030F7000030F6001330CC
:100EBE00F5008830F4000A128A110C240A128A11E5
:100ECE00730883120313A7007208A6007108A50009
:100EDE007008A4000A128A11F6250A128A118312CA
:100EEE000313210883160313D5008312031320085E
:100EFE0083160313D40051085506031D882F50087E
:100F0E00540603198B2F8C2FDA2F80300A128A1178
:100F1E00B0220A128A11C03083120313C8000130A6
:100F2E00C90083160313530883120313CB008316D1
:100F3E000313520883120313CA000A128A11EE22F7
:100F4E000A128A11C030F3000A128A1181220A1283
:100F5E008A11C0300A128A11B0220A128A11C030C8
:100F6E0083120313C8000930C900831603135508F2
:100F7E0083120313CB008316031354088312031337
:100F8E00CA000A128A11EE220A128A11C030F30028
:100F9E000A128A1181220A128A1183160313550826
:100FAE00D1005408D000033083120313DB008A30C3
:100FBE00DA005530D900D90BE22FDA0BE22FDB0B1A
:100FCE00E22F3D2F0A128A11002883120313DC012F
:100FDE00DD01DE01DF01E0018313A0308400C030AB
:100FEE000A128A1158220A128A1183010A128A11D0
:020FFE00292F99
:00000001FF
