:060000000A128A11FC2F18
:100C86008316031307110C30831203139700F930F0
:100C96008316031392000530831203139200950105
:100CA60008000030FC000030FB000030FA00003085
:100CB600F900701C5F2E602E772E7408F9077508F0
:100CC60003110318013E0319692EFA07760803116A
:100CD6000318013E0319702EFB077708031103184A
:100CE600013E0319772EFC070130F8000310F40DBE
:100CF600F50DF60DF70DF80B792E01300310F30CF8
:100D0600F20CF10CF00CFF3E031D812E73087204E9
:100D160071047004031D902E912E5C2E7C08F30046
:100D26007B08F2007A08F1007908F000080000302C
:100D360083120313AB000030AA000030A900003074
:100D4600A80023082204210420040319AB2EAC2E8C
:100D5600F72E0130AC00BA2E0130FD000310A00DB5
:100D6600A10DA20DA30DFD0BB12E0130AC07A31FE3
:100D7600BD2EBE2EAF2E0130FD000310A80DA90D0D
:100D8600AA0DAB0DFD0BC02E23082702031DD52E81
:100D960022082602031DD52E21082502031DD52E65
:100DA60020082402031CD82ED92EE82E2008A402DF
:100DB6002108031C210FA5022208031C220FA602EC
:100DC6002308031C230FA702281401300310A30CC9
:100DD600A20CA10CA00CFF3E031DE92E0130AC02B3
:100DE600031DF62EF72EBE2E2B08A3002A08A200FE
:100DF6002908A1002808A0000800FF308316031365
:100E0600860085010A128A1143260A128A11831264
:100E16000313BB0183120313861C122F132F2C2FCF
:100E260064303B020318182F192F1B2F0130BB0704
:100E36003B080A128A1167270A128A111A3083128E
:100E46000313BA00F730B900B90B272FBA0B272FB7
:100E56002C2F83120313061D312F322F4A2F3B08E6
:100E66000319362F372F392F0130BB023B080A12E0
:100E76008A1167270A128A111A3083120313BA00DD
:100E8600F730B900B90B452FBA0B452F4A2F8312FD
:100E96000313861D4F2F502F522F01308500061E3B
:100EA600552F562F582F02308500861E5B2F5C2F3C
:100EB6000D2F850100300A128A1167270A128A113E
:100EC6000D2F0A128A11002883120313B40065300D
:100ED6003402031C6F2F702F722F6430B4008316F8
:100EE6000313120883120313AD00AE010310AD0DF8
:100EF600AE0D0310AD0DAE0D2D08043EAF002E084D
:100F06000318013E003EB0002F08B2003008B300BF
:100F16000030A3000030A2000030A1006430A00021
:100F26003408AD00AE01AF01B0013008F3002F0860
:100F3600F2002E08F1002D08F0003208F400330804
:100F4600F500F601F7010A128A1154260A128A11CF
:100F5600730883120313A7007208A6007108A50080
:100F66007008A4000A128A119A260A128A1183129C
:100F760003132308B8002208B7002108B60020088A
:100F8600B5003508AD003608AE003708AF003808A2
:100F9600B00002300310B00CAF0CAE0CAD0CFF3E2F
:100FA600031DCD2F2D0895003508AD003608AE007F
:100FB6003708AF003808B00001300310B00CAF0C92
:100FC600AE0CAD0CFF3E031DE02F2D080139B1001C
:100FD600B10EB10D17083106DF3931069700350815
:100FE6000139AD00AD0E17082D06EF392D06970015
:0A0FF600080083010A128A11002F7F
:00000001FF
